:030000000200807B
:06000B00758CE0D2D53235
:1000800075753475742E75731612016D7976C29676
:100090007F0190019B75A800758970758CE07E8446
:1000A0007D04D28CD2A9D2AF30D5FDC2D57838E745
:1000B00009D296F27830EFF2C29630B502427C2334
:1000C000FF30E7227F017976E57CB57D0DB57E0AAC
:1000D000B57F0280056003120111857E7F857D7EDC
:1000E000857C7D757C00DEC0DDBE7E847D0405756B
:1000F000E575B43C177575000574E574B43C0D7571
:1001000074000573E573B4180375730012016D80F4
:1001100097B4220A0573E573B418F6757300B42119
:100120000A1573E573B4FFF6757318B4120A0574F3
:10013000E574B43CF6757400B4110A1574E574B432
:10014000FFF675743CB4060A0575E575B43CF675A2
:100150007500B4050A1575E575B4FFF675753CB400
:1001600008077575007E847D0412016D2290019B45
:10017000E57575F00A8493F577E5F093F576E57407
:1001800075F00A8493F579E5F093F578E57375F0E9
:100190000A8493F57BE5F093F57A223F065B4F6680
:0701A0006D7D077F6F777C86
:00000001FF
