:0400000002001132B7
:03000B0002010CE3
:03006A0002000E83
:03000E0002006D80
:20006D00758780759850758921758A66758CFC758BFD758DFD750864C201C200C202D2A978
:20008D00D2ACD2AFD28CD28E10000280031200EB30010312010210020280031200DE7F01B4
:2000AD007E00BE060050E1D29690FF30EFF08E05ED2404FD3395E0FCED2419F582EC3401AF
:2000CD00F583E493FD90FF38F0C2960EEF2FFF80D1E5086003150822750864B29722AF9979
:2000ED00BF6100400BBF7B0050068F0674E02EFF8F09D2012230990122C20185099922431A
:08010D008A66758CFCD20232F7
:0A0119003F065B4F666D7D077F6FA8
:06004000E478FFF6D8FD94
:20001E007900E94400601B7A00900123780175A000E493F2A308B8000205A0D9F4DAF27564
:02003E00A0FF21
:200046007800E84400600A790175A000E4F309D8FC7800E84400600C7900900001E4F0A3B8
:04006600D8FCD9FAEF
:0D001100758120120115E582600302000ECA
:0401150075820022CD
:00000001FF
