:030000000200807B
:06000B00758CE2D2D53233
:1000800075793575782F7577151200EF7F01797ABC
:1000900090011175A8007E047DC0758970758CE291
:1000A000D28CD2A9D2AF30D5FDC2D57838E709D2EB
:1000B0009693F27830EFF2C2962330E70474017918
:1000C0007AFFDDE2DEE07E047DC00579E579B43CAF
:1000D000177579000578E578B43C0D7578000577DB
:1000E000E577B418037577001200EFB29780B7E593
:1000F0007975F00A8485F07AF57BE57875F00A84E5
:1001000085F07CF57DE57775F00A8485F07EF57FD6
:0D011000223F065B4F666D7D077F6F777C99
:00000001FF
